:100000000C9434000C9446000C9446000C9446006A
:100010000C9446000C9446000C9446000C94460048
:100020000C9446000C9446000C9446000C94460038
:100030000C9446000C9446000C9446000C94460028
:100040000C9446000C9446000C9446000C94460018
:100050000C9446000C9446000C9446000C94460008
:100060000C9484000C94460011241FBECFEFD4E002
:10007000DEBFCDBF21E0A0E0B1E001C01D92AB30FA
:10008000B207E1F70E946C000C94FE000C94000093
:1000900080509F4FFC01808190E002C0959587952C
:1000A0006A95E2F781700895F89438988AB1807F54
:1000B0008AB987B18E6087B982E70E94750088B1DE
:1000C00088B188B160E070E080E090E00E94480074
:1000D0008111F8CF789408950E94540061E070E097
:1000E00080E090E00E944800F9CF8093BA00ECEBEA
:1000F000F0E080818F7D80838081856480838FEFB5
:1001000080930501789408951F920F920FB60F9275
:1001100011248F939F93EF93FF938091B900887F71
:100120008038A9F028F4803659F0803781F05AC021
:10013000883AA9F1883B99F1803909F053C02FC062
:1001400085EC8093BC008FEF809305014EC08091B9
:10015000BB00909105019F3F59F4863018F48093BD
:10016000050102C01092050185EC8093BC003DC0E2
:10017000E0910501F0E0E050FF4F808380910501A0
:100180008F5F8093050180910501843020F485EC18
:100190008093BC002AC085E88093BC0026C0809173
:1001A00005018F3F11F410920501E0910501F0E087
:1001B000EA5FFE4F80818093BB00809105018F5FD5
:1001C0008093050181E28A95F1F700008091050195
:1001D000843020F485EC8093BC0007C085E88093D0
:1001E000BC0003C085EC8093BC00FF91EF919F9110
:1001F0008F910F900FBE0F901F901895F894FFCF1E
:00000001FF
